{
  "abi": [
    {
      "anonymous": false,
      "inputs": [
        {
          "indexed": false,
          "internalType": "address",
          "name": "withdrawalCredential",
          "type": "address"
        },
        {
          "indexed": false,
          "internalType": "uint256",
          "name": "withdrawnAmount",
          "type": "uint256"
        },
        {
          "indexed": false,
          "internalType": "address",
          "name": "owner",
          "type": "address"
        },
        {
          "indexed": false,
          "internalType": "uint256",
          "name": "ownerFee",
          "type": "uint256"
        }
      ],
      "name": "CollectedReward",
      "type": "event"
    },
    {
      "inputs": [],
      "name": "FEE_DENOMINATOR",
      "outputs": [
        {
          "internalType": "uint32",
          "name": "",
          "type": "uint32"
        }
      ],
      "stateMutability": "view",
      "type": "function"
    }
  ],
  "bytecode": {
    "object": "0x61036461003a600b82828239805160001a60731461002d57634e487b7160e01b600052600060045260246000fd5b30600052607381538281f3fe73000000000000000000000000000000000000000030146080604052600436106100405760003560e01c8063d73792a914610045578063ea788f4314610067575b600080fd5b61004e61271081565b60405163ffffffff909116815260200160405180910390f35b81801561007357600080fd5b50610087610082366004610278565b610089565b005b600061271061009e63ffffffff8616476102dc565b6100a891906102f9565b905060006100b6824761031b565b9050811515806100c557508015155b61010e5760405162461bcd60e51b81526020600482015260156024820152744e6f7468696e6720746f206469737472696275746560581b60448201526064015b60405180910390fd5b604080516001600160a01b038581168252602082018490528616818301526060810184905290517fea26d65e718d9960bf3d074b264a29f878be92f11e3a4f1b5ab8e81038cc1fc09181900360800190a16040516001600160a01b0385169083156108fc029084906000818181858888f19350505050158015610195573d6000803e3d6000fd5b506000836001600160a01b03168260405160006040518083038185875af1925050503d80600081146101e3576040519150601f19603f3d011682016040523d82523d6000602084013e6101e8565b606091505b50509050806102545760405162461bcd60e51b815260206004820152603260248201527f4661696c656420746f2073656e64204574686572206261636b20746f207769746044820152711a191c985dd85b0818dc9959195b9d1a585b60721b6064820152608401610105565b505050505050565b80356001600160a01b038116811461027357600080fd5b919050565b60008060006060848603121561028d57600080fd5b833563ffffffff811681146102a157600080fd5b92506102af6020850161025c565b91506102bd6040850161025c565b90509250925092565b634e487b7160e01b600052601160045260246000fd5b80820281158282048414176102f3576102f36102c6565b92915050565b60008261031657634e487b7160e01b600052601260045260246000fd5b500490565b818103818111156102f3576102f36102c656fea2646970667358221220ee420c8c012ac5749453902735be24defd4356bb7223a63d894f1928266ba0f164736f6c63430008140033",
    "linkReferences": {}
  },
  "methodIdentifiers": {
    "FEE_DENOMINATOR()": "d73792a9",
    "calculateRewards(uint32,address,address)": "ea788f43"
  },
  "id": 19
}