{
    "abi": [
        {
            "inputs": [
                {
                    "internalType": "uint32",
                    "name": "_defaultFeeNumerator",
                    "type": "uint32"
                }
            ],
            "stateMutability": "nonpayable",
            "type": "constructor"
        },
        {
            "inputs": [
                {
                    "internalType": "address",
                    "name": "owner",
                    "type": "address"
                }
            ],
            "name": "OwnableInvalidOwner",
            "type": "error"
        },
        {
            "inputs": [
                {
                    "internalType": "address",
                    "name": "account",
                    "type": "address"
                }
            ],
            "name": "OwnableUnauthorizedAccount",
            "type": "error"
        },
        {
            "anonymous": false,
            "inputs": [
                {
                    "indexed": false,
                    "internalType": "address",
                    "name": "contractAddress",
                    "type": "address"
                },
                {
                    "indexed": false,
                    "internalType": "uint32",
                    "name": "feeNumerator",
                    "type": "uint32"
                }
            ],
            "name": "ContractDeployed",
            "type": "event"
        },
        {
            "anonymous": false,
            "inputs": [
                {
                    "indexed": true,
                    "internalType": "address",
                    "name": "previousOwner",
                    "type": "address"
                },
                {
                    "indexed": true,
                    "internalType": "address",
                    "name": "newOwner",
                    "type": "address"
                }
            ],
            "name": "OwnershipTransferStarted",
            "type": "event"
        },
        {
            "anonymous": false,
            "inputs": [
                {
                    "indexed": true,
                    "internalType": "address",
                    "name": "previousOwner",
                    "type": "address"
                },
                {
                    "indexed": true,
                    "internalType": "address",
                    "name": "newOwner",
                    "type": "address"
                }
            ],
            "name": "OwnershipTransferred",
            "type": "event"
        },
        {
            "inputs": [],
            "name": "acceptOwnership",
            "outputs": [],
            "stateMutability": "nonpayable",
            "type": "function"
        },
        {
            "inputs": [
                {
                    "internalType": "address payable[]",
                    "name": "feeAddresses",
                    "type": "address[]"
                }
            ],
            "name": "batchCollectRewards",
            "outputs": [],
            "stateMutability": "nonpayable",
            "type": "function"
        },
        {
            "inputs": [
                {
                    "internalType": "uint32",
                    "name": "_newFeeNumerator",
                    "type": "uint32"
                }
            ],
            "name": "changeDefaultFee",
            "outputs": [],
            "stateMutability": "nonpayable",
            "type": "function"
        },
        {
            "inputs": [
                {
                    "internalType": "address payable",
                    "name": "_feeContract",
                    "type": "address"
                },
                {
                    "internalType": "uint32",
                    "name": "_newFee",
                    "type": "uint32"
                }
            ],
            "name": "changeFeeNumerator",
            "outputs": [],
            "stateMutability": "nonpayable",
            "type": "function"
        },
        {
            "inputs": [
                {
                    "internalType": "address",
                    "name": "_withdrawalCredential",
                    "type": "address"
                }
            ],
            "name": "createFeeContract",
            "outputs": [
                {
                    "internalType": "address payable",
                    "name": "",
                    "type": "address"
                }
            ],
            "stateMutability": "nonpayable",
            "type": "function"
        },
        {
            "inputs": [],
            "name": "defaultFeeNumerator",
            "outputs": [
                {
                    "internalType": "uint32",
                    "name": "",
                    "type": "uint32"
                }
            ],
            "stateMutability": "view",
            "type": "function"
        },
        {
            "inputs": [
                {
                    "internalType": "address",
                    "name": "addr",
                    "type": "address"
                }
            ],
            "name": "getEth",
            "outputs": [],
            "stateMutability": "nonpayable",
            "type": "function"
        },
        {
            "inputs": [],
            "name": "owner",
            "outputs": [
                {
                    "internalType": "address",
                    "name": "",
                    "type": "address"
                }
            ],
            "stateMutability": "view",
            "type": "function"
        },
        {
            "inputs": [],
            "name": "pendingOwner",
            "outputs": [
                {
                    "internalType": "address",
                    "name": "",
                    "type": "address"
                }
            ],
            "stateMutability": "view",
            "type": "function"
        },
        {
            "inputs": [
                {
                    "internalType": "address",
                    "name": "_withdrawalCredential",
                    "type": "address"
                }
            ],
            "name": "predictFeeContractAddress",
            "outputs": [
                {
                    "internalType": "address",
                    "name": "",
                    "type": "address"
                }
            ],
            "stateMutability": "view",
            "type": "function"
        },
        {
            "inputs": [],
            "name": "renounceOwnership",
            "outputs": [],
            "stateMutability": "nonpayable",
            "type": "function"
        },
        {
            "inputs": [
                {
                    "internalType": "address",
                    "name": "newOwner",
                    "type": "address"
                }
            ],
            "name": "transferOwnership",
            "outputs": [],
            "stateMutability": "nonpayable",
            "type": "function"
        },
        {
            "stateMutability": "payable",
            "type": "receive"
        }
    ],
    "bytecode": {
        "object": "0x608060405234801561001057600080fd5b50604051610f5b380380610f5b83398101604081905261002f9161014d565b338061005657604051631e4fbdf760e01b8152600060048201526024015b60405180910390fd5b61005f816100e1565b506127108163ffffffff1611156100b85760405162461bcd60e51b815260206004820152601560248201527f496e76616c696420666565206e756d657261746f720000000000000000000000604482015260640161004d565b6001805463ffffffff909216600160a01b0263ffffffff60a01b1990921691909117905561017a565b600180546001600160a01b03191690556100fa816100fd565b50565b600080546001600160a01b038381166001600160a01b0319831681178455604051919092169283917f8be0079c531659141344cd1fd0a4f28419497f9722a3daafe3b4186f6b6457e09190a35050565b60006020828403121561015f57600080fd5b815163ffffffff8116811461017357600080fd5b9392505050565b610dd2806101896000396000f3fe6080604052600436106100ab5760003560e01c80638da5cb5b116100645780638da5cb5b14610180578063a900ccec1461019e578063af3f6f4d146101be578063e30c3978146101f7578063ef5828d014610215578063f2fde38b1461023557600080fd5b806301361090146100b75780632630be4e146100d9578063673c949d146100f95780636a953e0914610136578063715018a61461015657806379ba50971461016b57600080fd5b366100b257005b600080fd5b3480156100c357600080fd5b506100d76100d2366004610816565b610255565b005b3480156100e557600080fd5b506100d76100f436600461084b565b6102c0565b34801561010557600080fd5b506101196101143660046108c0565b610366565b6040516001600160a01b0390911681526020015b60405180910390f35b34801561014257600080fd5b506100d76101513660046108c0565b61047e565b34801561016257600080fd5b506100d7610532565b34801561017757600080fd5b506100d7610546565b34801561018c57600080fd5b506000546001600160a01b0316610119565b3480156101aa57600080fd5b506101196101b93660046108c0565b61058a565b3480156101ca57600080fd5b506001546101e290600160a01b900463ffffffff1681565b60405163ffffffff909116815260200161012d565b34801561020357600080fd5b506001546001600160a01b0316610119565b34801561022157600080fd5b506100d76102303660046108e4565b61065b565b34801561024157600080fd5b506100d76102503660046108c0565b6106d9565b61025d61074a565b6040516335c8427760e01b815263ffffffff821660048201526001600160a01b038316906335c8427790602401600060405180830381600087803b1580156102a457600080fd5b505af11580156102b8573d6000803e3d6000fd5b505050505050565b60005b63ffffffff81168211156103615782828263ffffffff168181106102e9576102e96108ff565b90506020020160208101906102fe91906108c0565b6001600160a01b03166370bb45b36040518163ffffffff1660e01b8152600401600060405180830381600087803b15801561033857600080fd5b505af115801561034c573d6000803e3d6000fd5b505050508061035a90610915565b90506102c3565b505050565b600080826001600160a01b031660001b905060008184604051610388906107db565b6001600160a01b0390911681526020018190604051809103906000f59050801580156103b8573d6000803e3d6000fd5b506001546040516335c8427760e01b8152600160a01b90910463ffffffff1660048201529091506001600160a01b038216906335c8427790602401600060405180830381600087803b15801561040d57600080fd5b505af1158015610421573d6000803e3d6000fd5b5050600154604080516001600160a01b0386168152600160a01b90920463ffffffff1660208301527f620dca0c9d04f7cea9d7f31e571d74acccd54c21dc8ff8855ec1d5a21733c26b935001905060405180910390a19392505050565b61048661074a565b6000816001600160a01b03164760405160006040518083038185875af1925050503d80600081146104d3576040519150601f19603f3d011682016040523d82523d6000602084013e6104d8565b606091505b505090508061052e5760405162461bcd60e51b815260206004820152601f60248201527f4661696c656420746f20676574204574682066726f6d20636f6e74726163740060448201526064015b60405180910390fd5b5050565b61053a61074a565b6105446000610777565b565b60015433906001600160a01b0316811461057e5760405163118cdaa760e01b81526001600160a01b0382166004820152602401610525565b61058781610777565b50565b6000806040518060200161059d906107db565b601f1982820381018352601f9091011660408181526001600160a01b038616602083015291925082910160408051601f19818403018152908290526105e59291602001610976565b60408051601f1981840301815282825280516020918201206001600160f81b0319828501523060601b6bffffffffffffffffffffffff191660218501526001600160a01b039690961660358401526055808401969096528151808403909601865260759092019052835193019290922092915050565b61066361074a565b6127108163ffffffff1611156106b35760405162461bcd60e51b815260206004820152601560248201527424b73b30b634b2103332b290373ab6b2b930ba37b960591b6044820152606401610525565b6001805463ffffffff909216600160a01b0263ffffffff60a01b19909216919091179055565b6106e161074a565b600180546001600160a01b0383166001600160a01b031990911681179091556107126000546001600160a01b031690565b6001600160a01b03167f38d16b8cac22d99fc7c124b9cd0de2d3fa1faef420bfe791d8c362d765e2270060405160405180910390a350565b6000546001600160a01b031633146105445760405163118cdaa760e01b8152336004820152602401610525565b600180546001600160a01b031916905561058781600080546001600160a01b038381166001600160a01b0319831681178455604051919092169283917f8be0079c531659141344cd1fd0a4f28419497f9722a3daafe3b4186f6b6457e09190a35050565b6104098061099483390190565b6001600160a01b038116811461058757600080fd5b803563ffffffff8116811461081157600080fd5b919050565b6000806040838503121561082957600080fd5b8235610834816107e8565b9150610842602084016107fd565b90509250929050565b6000806020838503121561085e57600080fd5b823567ffffffffffffffff8082111561087657600080fd5b818501915085601f83011261088a57600080fd5b81358181111561089957600080fd5b8660208260051b85010111156108ae57600080fd5b60209290920196919550909350505050565b6000602082840312156108d257600080fd5b81356108dd816107e8565b9392505050565b6000602082840312156108f657600080fd5b6108dd826107fd565b634e487b7160e01b600052603260045260246000fd5b600063ffffffff80831681810361093c57634e487b7160e01b600052601160045260246000fd5b6001019392505050565b6000815160005b81811015610967576020818501810151868301520161094d565b50600093019283525090919050565b600061098b6109858386610946565b84610946565b94935050505056fe60c060405234801561001057600080fd5b5060405161040938038061040983398101604081905261002f91610044565b6001600160a01b03166080523360a052610074565b60006020828403121561005657600080fd5b81516001600160a01b038116811461006d57600080fd5b9392505050565b60805160a05161035d6100ac60003960008181606c01528181610146015261025c01526000818160e70152610284015261035d6000f3fe60806040526004361061004e5760003560e01c8063230b9da31461005a57806335c84277146100ab57806370bb45b3146100cd57806383059303146100d5578063e86dea4a1461010957600080fd5b3661005557005b600080fd5b34801561006657600080fd5b5061008e7f000000000000000000000000000000000000000000000000000000000000000081565b6040516001600160a01b0390911681526020015b60405180910390f35b3480156100b757600080fd5b506100cb6100c63660046102fa565b61013b565b005b6100cb610236565b3480156100e157600080fd5b5061008e7f000000000000000000000000000000000000000000000000000000000000000081565b34801561011557600080fd5b506000546101269063ffffffff1681565b60405163ffffffff90911681526020016100a2565b336001600160a01b037f000000000000000000000000000000000000000000000000000000000000000016146101ca5760405162461bcd60e51b815260206004820152602960248201527f4368616e6765466565206e6f742063616c6c65642066726f6d20706172656e746044820152680818dbdb9d1c9858dd60ba1b60648201526084015b60405180910390fd5b6127108163ffffffff16111561021a5760405162461bcd60e51b815260206004820152601560248201527424b73b30b634b2103332b290373ab6b2b930ba37b960591b60448201526064016101c1565b6000805463ffffffff191663ffffffff92909216919091179055565b60005460405162a1b0d360e71b815263ffffffff90911660048201526001600160a01b037f0000000000000000000000000000000000000000000000000000000000000000811660248301527f000000000000000000000000000000000000000000000000000000000000000016604482015273__$c56d76a1417c078a963cba4fa22c45184c$__906350d869809060640160006040518083038186803b1580156102e057600080fd5b505af41580156102f4573d6000803e3d6000fd5b50505050565b60006020828403121561030c57600080fd5b813563ffffffff8116811461032057600080fd5b939250505056fea26469706673582212208ccf8ac8c2a8edb6b26ed33559013ced7d26e968165813c3212e2316677f815f64736f6c63430008140033a2646970667358221220fc1b4406c8832e89c9c5f0a6a8fb3714275a9899ddebdc3e5a97513dac10cb1c64736f6c63430008140033",
        "linkReferences": {
            "src/FeeRewardsManager.sol": {
                "CalculateAndSendRewards": [
                    {
                        "start": 3700,
                        "length": 20
                    }
                ]
            }
        }
    },
    "methodIdentifiers": {
        "acceptOwnership()": "79ba5097",
        "batchCollectRewards(address[])": "2630be4e",
        "changeDefaultFee(uint32)": "ef5828d0",
        "changeFeeNumerator(address,uint32)": "01361090",
        "createFeeContract(address)": "673c949d",
        "defaultFeeNumerator()": "af3f6f4d",
        "getEth(address)": "6a953e09",
        "owner()": "8da5cb5b",
        "pendingOwner()": "e30c3978",
        "predictFeeContractAddress(address)": "a900ccec",
        "renounceOwnership()": "715018a6",
        "transferOwnership(address)": "f2fde38b"
    },
    "id": 25
}