{
    "abi": [
        {
            "inputs": [
                {
                    "internalType": "uint32",
                    "name": "_defaultFeeNumerator",
                    "type": "uint32"
                }
            ],
            "stateMutability": "nonpayable",
            "type": "constructor"
        },
        {
            "anonymous": false,
            "inputs": [
                {
                    "indexed": false,
                    "internalType": "address",
                    "name": "contractAddress",
                    "type": "address"
                },
                {
                    "indexed": false,
                    "internalType": "uint32",
                    "name": "feeNumerator",
                    "type": "uint32"
                }
            ],
            "name": "ContractDeployed",
            "type": "event"
        },
        {
            "anonymous": false,
            "inputs": [
                {
                    "indexed": true,
                    "internalType": "address",
                    "name": "previousOwner",
                    "type": "address"
                },
                {
                    "indexed": true,
                    "internalType": "address",
                    "name": "newOwner",
                    "type": "address"
                }
            ],
            "name": "OwnershipTransferred",
            "type": "event"
        },
        {
            "inputs": [
                {
                    "internalType": "address payable[]",
                    "name": "feeAddresses",
                    "type": "address[]"
                }
            ],
            "name": "batchCollectRewards",
            "outputs": [],
            "stateMutability": "nonpayable",
            "type": "function"
        },
        {
            "inputs": [
                {
                    "internalType": "uint32",
                    "name": "_newFeeNumerator",
                    "type": "uint32"
                }
            ],
            "name": "changeDefaultFee",
            "outputs": [],
            "stateMutability": "nonpayable",
            "type": "function"
        },
        {
            "inputs": [
                {
                    "internalType": "address payable",
                    "name": "_feeContract",
                    "type": "address"
                },
                {
                    "internalType": "uint32",
                    "name": "_newFee",
                    "type": "uint32"
                }
            ],
            "name": "changeFeeNumerator",
            "outputs": [],
            "stateMutability": "nonpayable",
            "type": "function"
        },
        {
            "inputs": [
                {
                    "internalType": "address",
                    "name": "_withdrawalCredential",
                    "type": "address"
                }
            ],
            "name": "createFeeContract",
            "outputs": [
                {
                    "internalType": "address payable",
                    "name": "",
                    "type": "address"
                }
            ],
            "stateMutability": "nonpayable",
            "type": "function"
        },
        {
            "inputs": [],
            "name": "defaultFeeNumerator",
            "outputs": [
                {
                    "internalType": "uint32",
                    "name": "",
                    "type": "uint32"
                }
            ],
            "stateMutability": "view",
            "type": "function"
        },
        {
            "inputs": [
                {
                    "internalType": "address",
                    "name": "addr",
                    "type": "address"
                }
            ],
            "name": "getEth",
            "outputs": [],
            "stateMutability": "nonpayable",
            "type": "function"
        },
        {
            "inputs": [],
            "name": "owner",
            "outputs": [
                {
                    "internalType": "address",
                    "name": "",
                    "type": "address"
                }
            ],
            "stateMutability": "view",
            "type": "function"
        },
        {
            "inputs": [
                {
                    "internalType": "address",
                    "name": "_withdrawalCredential",
                    "type": "address"
                }
            ],
            "name": "predictFeeContractAddress",
            "outputs": [
                {
                    "internalType": "address",
                    "name": "",
                    "type": "address"
                }
            ],
            "stateMutability": "view",
            "type": "function"
        },
        {
            "inputs": [],
            "name": "renounceOwnership",
            "outputs": [],
            "stateMutability": "nonpayable",
            "type": "function"
        },
        {
            "inputs": [
                {
                    "internalType": "address",
                    "name": "newOwner",
                    "type": "address"
                }
            ],
            "name": "transferOwnership",
            "outputs": [],
            "stateMutability": "nonpayable",
            "type": "function"
        },
        {
            "stateMutability": "payable",
            "type": "receive"
        }
    ],
    "bytecode": {
        "object": "0x608060405234801561001057600080fd5b50604051610cc6380380610cc683398101604081905261002f916100b1565b61003833610061565b6000805463ffffffff909216600160a01b0263ffffffff60a01b199092169190911790556100de565b600080546001600160a01b038381166001600160a01b0319831681178455604051919092169283917f8be0079c531659141344cd1fd0a4f28419497f9722a3daafe3b4186f6b6457e09190a35050565b6000602082840312156100c357600080fd5b815163ffffffff811681146100d757600080fd5b9392505050565b610bd9806100ed6000396000f3fe6080604052600436106100955760003560e01c80638da5cb5b116100595780638da5cb5b14610155578063a900ccec14610173578063af3f6f4d14610193578063ef5828d0146101cc578063f2fde38b146101ec57600080fd5b806301361090146100a15780632630be4e146100c3578063673c949d146100e35780636a953e0914610120578063715018a61461014057600080fd5b3661009c57005b600080fd5b3480156100ad57600080fd5b506100c16100bc3660046106b2565b61020c565b005b3480156100cf57600080fd5b506100c16100de3660046106e7565b610277565b3480156100ef57600080fd5b506101036100fe36600461075c565b61031d565b6040516001600160a01b0390911681526020015b60405180910390f35b34801561012c57600080fd5b506100c161013b36600461075c565b6103e9565b34801561014c57600080fd5b506100c161042a565b34801561016157600080fd5b506000546001600160a01b0316610103565b34801561017f57600080fd5b5061010361018e36600461075c565b61043e565b34801561019f57600080fd5b506000546101b790600160a01b900463ffffffff1681565b60405163ffffffff9091168152602001610117565b3480156101d857600080fd5b506100c16101e7366004610780565b610521565b3480156101f857600080fd5b506100c161020736600461075c565b61054f565b6102146105cd565b6040516335c8427760e01b815263ffffffff821660048201526001600160a01b038316906335c8427790602401600060405180830381600087803b15801561025b57600080fd5b505af115801561026f573d6000803e3d6000fd5b505050505050565b60005b63ffffffff81168211156103185782828263ffffffff168181106102a0576102a061079b565b90506020020160208101906102b5919061075c565b6001600160a01b03166370bb45b36040518163ffffffff1660e01b8152600401600060405180830381600087803b1580156102ef57600080fd5b505af1158015610303573d6000803e3d6000fd5b5050505080610311906107b1565b905061027a565b505050565b600080826001600160a01b031660001b905060008184600060149054906101000a900463ffffffff1660405161035290610677565b6001600160a01b03909216825263ffffffff1660208201526040018190604051809103906000f590508015801561038d573d6000803e3d6000fd5b50600054604080516001600160a01b0384168152600160a01b90920463ffffffff1660208301529192507f620dca0c9d04f7cea9d7f31e571d74acccd54c21dc8ff8855ec1d5a21733c26b910160405180910390a19392505050565b6103f16105cd565b6040516001600160a01b038216904780156108fc02916000818181858888f19350505050158015610426573d6000803e3d6000fd5b5050565b6104326105cd565b61043c6000610627565b565b6000806040518060200161045190610677565b601f1982820381018352601f9091011660408181526000546001600160a01b038716602084015263ffffffff600160a01b9091041681830152805180830382018152606083019091529192506104ab918391608001610812565b60408051601f1981840301815282825280516020918201206001600160f81b0319828501523060601b6bffffffffffffffffffffffff191660218501526001600160a01b039690961660358401526055808401969096528151808403909601865260759092019052835193019290922092915050565b6105296105cd565b6000805463ffffffff909216600160a01b0263ffffffff60a01b19909216919091179055565b6105576105cd565b6001600160a01b0381166105c15760405162461bcd60e51b815260206004820152602660248201527f4f776e61626c653a206e6577206f776e657220697320746865207a65726f206160448201526564647265737360d01b60648201526084015b60405180910390fd5b6105ca81610627565b50565b6000546001600160a01b0316331461043c5760405162461bcd60e51b815260206004820181905260248201527f4f776e61626c653a2063616c6c6572206973206e6f7420746865206f776e657260448201526064016105b8565b600080546001600160a01b038381166001600160a01b0319831681178455604051919092169283917f8be0079c531659141344cd1fd0a4f28419497f9722a3daafe3b4186f6b6457e09190a35050565b6103748061083083390190565b6001600160a01b03811681146105ca57600080fd5b803563ffffffff811681146106ad57600080fd5b919050565b600080604083850312156106c557600080fd5b82356106d081610684565b91506106de60208401610699565b90509250929050565b600080602083850312156106fa57600080fd5b823567ffffffffffffffff8082111561071257600080fd5b818501915085601f83011261072657600080fd5b81358181111561073557600080fd5b8660208260051b850101111561074a57600080fd5b60209290920196919550909350505050565b60006020828403121561076e57600080fd5b813561077981610684565b9392505050565b60006020828403121561079257600080fd5b61077982610699565b634e487b7160e01b600052603260045260246000fd5b600063ffffffff8083168181036107d857634e487b7160e01b600052601160045260246000fd5b6001019392505050565b6000815160005b8181101561080357602081850181015186830152016107e9565b50600093019283525090919050565b600061082761082183866107e2565b846107e2565b94935050505056fe608060405234801561001057600080fd5b5060405161037438038061037483398101604081905261002f91610076565b6000805463ffffffff909216600160a01b026001600160c01b03199092166001600160a01b0390931692909217179055600180546001600160a01b031916331790556100c5565b6000806040838503121561008957600080fd5b82516001600160a01b03811681146100a057600080fd5b602084015190925063ffffffff811681146100ba57600080fd5b809150509250929050565b6102a0806100d46000396000f3fe60806040526004361061004e5760003560e01c8063230b9da31461005a57806335c842771461009757806370bb45b3146100b957806383059303146100c1578063e86dea4a146100e157600080fd5b3661005557005b600080fd5b34801561006657600080fd5b5060015461007a906001600160a01b031681565b6040516001600160a01b0390911681526020015b60405180910390f35b3480156100a357600080fd5b506100b76100b236600461023d565b61011a565b005b6100b76101b0565b3480156100cd57600080fd5b5060005461007a906001600160a01b031681565b3480156100ed57600080fd5b5060005461010590600160a01b900463ffffffff1681565b60405163ffffffff909116815260200161008e565b6001546001600160a01b0316331461018a5760405162461bcd60e51b815260206004820152602960248201527f4368616e6765466565206e6f742063616c6c65642066726f6d20706172656e746044820152680818dbdb9d1c9858dd60ba1b606482015260840160405180910390fd5b6000805463ffffffff909216600160a01b0263ffffffff60a01b19909216919091179055565b60005460015460405163ea788f4360e01b8152600160a01b830463ffffffff1660048201526001600160a01b0391821660248201529116604482015273__$c56d76a1417c078a963cba4fa22c45184c$__9063ea788f439060640160006040518083038186803b15801561022357600080fd5b505af4158015610237573d6000803e3d6000fd5b50505050565b60006020828403121561024f57600080fd5b813563ffffffff8116811461026357600080fd5b939250505056fea264697066735822122066a2ab64342090ae4ac32d24120d45f6850a430fefa09a9390d57ffc7d754d3e64736f6c63430008140033a26469706673582212201d2b8bc53bada45dfd2c1bca271919ec861e2df7a5d7b24efbf4b1de9c0182e864736f6c63430008140033",
        "linkReferences": {
            "src/FeeRewardsManager.sol": {
                "CalculateAndSendRewards": [
                    {
                        "start": 3039,
                        "length": 20
                    }
                ]
            }
        }
    },
    "methodIdentifiers": {
        "batchCollectRewards(address[])": "2630be4e",
        "changeDefaultFee(uint32)": "ef5828d0",
        "changeFeeNumerator(address,uint32)": "01361090",
        "createFeeContract(address)": "673c949d",
        "defaultFeeNumerator()": "af3f6f4d",
        "getEth(address)": "6a953e09",
        "owner()": "8da5cb5b",
        "predictFeeContractAddress(address)": "a900ccec",
        "renounceOwnership()": "715018a6",
        "transferOwnership(address)": "f2fde38b"
    },
    "id": 19
}